{
  "_format": "hh-sol-artifact-1",
  "contractName": "RaiseGGEscrow",
  "sourceName": "src/RaiseGGEscrow.sol",
  "abi": [
    {
      "inputs": [
        {
          "internalType": "address",
          "name": "_authority",
          "type": "address"
        },
        {
          "internalType": "address",
          "name": "_treasury",
          "type": "address"
        },
        {
          "internalType": "address[]",
          "name": "_allowedTokens",
          "type": "address[]"
        }
      ],
      "stateMutability": "nonpayable",
      "type": "constructor"
    },
    {
      "inputs": [],
      "name": "AlreadyJoined",
      "type": "error"
    },
    {
      "inputs": [],
      "name": "EnforcedPause",
      "type": "error"
    },
    {
      "inputs": [],
      "name": "ExpectedPause",
      "type": "error"
    },
    {
      "inputs": [],
      "name": "InvalidWinner",
      "type": "error"
    },
    {
      "inputs": [],
      "name": "MatchAlreadyExists",
      "type": "error"
    },
    {
      "inputs": [],
      "name": "MatchNotCancellable",
      "type": "error"
    },
    {
      "inputs": [],
      "name": "MatchNotLocked",
      "type": "error"
    },
    {
      "inputs": [],
      "name": "MatchNotOpen",
      "type": "error"
    },
    {
      "inputs": [],
      "name": "NotAuthority",
      "type": "error"
    },
    {
      "inputs": [],
      "name": "OpenWindowExpired",
      "type": "error"
    },
    {
      "inputs": [
        {
          "internalType": "address",
          "name": "owner",
          "type": "address"
        }
      ],
      "name": "OwnableInvalidOwner",
      "type": "error"
    },
    {
      "inputs": [
        {
          "internalType": "address",
          "name": "account",
          "type": "address"
        }
      ],
      "name": "OwnableUnauthorizedAccount",
      "type": "error"
    },
    {
      "inputs": [],
      "name": "ReentrancyGuardReentrantCall",
      "type": "error"
    },
    {
      "inputs": [],
      "name": "ResolveWindowActive",
      "type": "error"
    },
    {
      "inputs": [
        {
          "internalType": "address",
          "name": "token",
          "type": "address"
        }
      ],
      "name": "SafeERC20FailedOperation",
      "type": "error"
    },
    {
      "inputs": [],
      "name": "SamePlayer",
      "type": "error"
    },
    {
      "inputs": [],
      "name": "TokenNotAllowed",
      "type": "error"
    },
    {
      "inputs": [],
      "name": "ZeroStake",
      "type": "error"
    },
    {
      "anonymous": false,
      "inputs": [
        {
          "indexed": true,
          "internalType": "bytes16",
          "name": "matchId",
          "type": "bytes16"
        }
      ],
      "name": "MatchCancelled",
      "type": "event"
    },
    {
      "anonymous": false,
      "inputs": [
        {
          "indexed": true,
          "internalType": "bytes16",
          "name": "matchId",
          "type": "bytes16"
        },
        {
          "indexed": true,
          "internalType": "address",
          "name": "playerA",
          "type": "address"
        },
        {
          "indexed": false,
          "internalType": "address",
          "name": "token",
          "type": "address"
        },
        {
          "indexed": false,
          "internalType": "uint256",
          "name": "stakeAmount",
          "type": "uint256"
        }
      ],
      "name": "MatchCreated",
      "type": "event"
    },
    {
      "anonymous": false,
      "inputs": [
        {
          "indexed": true,
          "internalType": "bytes16",
          "name": "matchId",
          "type": "bytes16"
        },
        {
          "indexed": true,
          "internalType": "address",
          "name": "playerB",
          "type": "address"
        }
      ],
      "name": "MatchJoined",
      "type": "event"
    },
    {
      "anonymous": false,
      "inputs": [
        {
          "indexed": true,
          "internalType": "bytes16",
          "name": "matchId",
          "type": "bytes16"
        },
        {
          "indexed": true,
          "internalType": "address",
          "name": "winner",
          "type": "address"
        },
        {
          "indexed": false,
          "internalType": "uint256",
          "name": "payout",
          "type": "uint256"
        },
        {
          "indexed": false,
          "internalType": "uint256",
          "name": "rake",
          "type": "uint256"
        }
      ],
      "name": "MatchResolved",
      "type": "event"
    },
    {
      "anonymous": false,
      "inputs": [
        {
          "indexed": true,
          "internalType": "address",
          "name": "previousOwner",
          "type": "address"
        },
        {
          "indexed": true,
          "internalType": "address",
          "name": "newOwner",
          "type": "address"
        }
      ],
      "name": "OwnershipTransferred",
      "type": "event"
    },
    {
      "anonymous": false,
      "inputs": [
        {
          "indexed": false,
          "internalType": "address",
          "name": "account",
          "type": "address"
        }
      ],
      "name": "Paused",
      "type": "event"
    },
    {
      "anonymous": false,
      "inputs": [
        {
          "indexed": false,
          "internalType": "address",
          "name": "account",
          "type": "address"
        }
      ],
      "name": "Unpaused",
      "type": "event"
    },
    {
      "inputs": [],
      "name": "BPS_DENOMINATOR",
      "outputs": [
        {
          "internalType": "uint256",
          "name": "",
          "type": "uint256"
        }
      ],
      "stateMutability": "view",
      "type": "function"
    },
    {
      "inputs": [],
      "name": "OPEN_TIMEOUT",
      "outputs": [
        {
          "internalType": "uint256",
          "name": "",
          "type": "uint256"
        }
      ],
      "stateMutability": "view",
      "type": "function"
    },
    {
      "inputs": [],
      "name": "PLATFORM_FEE_BPS",
      "outputs": [
        {
          "internalType": "uint256",
          "name": "",
          "type": "uint256"
        }
      ],
      "stateMutability": "view",
      "type": "function"
    },
    {
      "inputs": [],
      "name": "RESOLVE_TIMEOUT",
      "outputs": [
        {
          "internalType": "uint256",
          "name": "",
          "type": "uint256"
        }
      ],
      "stateMutability": "view",
      "type": "function"
    },
    {
      "inputs": [
        {
          "internalType": "address",
          "name": "",
          "type": "address"
        }
      ],
      "name": "allowedTokens",
      "outputs": [
        {
          "internalType": "bool",
          "name": "",
          "type": "bool"
        }
      ],
      "stateMutability": "view",
      "type": "function"
    },
    {
      "inputs": [],
      "name": "authority",
      "outputs": [
        {
          "internalType": "address",
          "name": "",
          "type": "address"
        }
      ],
      "stateMutability": "view",
      "type": "function"
    },
    {
      "inputs": [
        {
          "internalType": "bytes16",
          "name": "matchId",
          "type": "bytes16"
        }
      ],
      "name": "cancel",
      "outputs": [],
      "stateMutability": "nonpayable",
      "type": "function"
    },
    {
      "inputs": [
        {
          "internalType": "bytes16",
          "name": "matchId",
          "type": "bytes16"
        },
        {
          "internalType": "address",
          "name": "token",
          "type": "address"
        },
        {
          "internalType": "uint256",
          "name": "stakeAmount",
          "type": "uint256"
        }
      ],
      "name": "createMatch",
      "outputs": [],
      "stateMutability": "nonpayable",
      "type": "function"
    },
    {
      "inputs": [
        {
          "internalType": "bytes16",
          "name": "matchId",
          "type": "bytes16"
        }
      ],
      "name": "getMatch",
      "outputs": [
        {
          "components": [
            {
              "internalType": "address",
              "name": "playerA",
              "type": "address"
            },
            {
              "internalType": "address",
              "name": "playerB",
              "type": "address"
            },
            {
              "internalType": "address",
              "name": "token",
              "type": "address"
            },
            {
              "internalType": "uint256",
              "name": "stakeAmount",
              "type": "uint256"
            },
            {
              "internalType": "enum RaiseGGEscrow.MatchStatus",
              "name": "status",
              "type": "uint8"
            },
            {
              "internalType": "uint256",
              "name": "expiresAt",
              "type": "uint256"
            },
            {
              "internalType": "uint256",
              "name": "resolveBy",
              "type": "uint256"
            }
          ],
          "internalType": "struct RaiseGGEscrow.Match",
          "name": "",
          "type": "tuple"
        }
      ],
      "stateMutability": "view",
      "type": "function"
    },
    {
      "inputs": [
        {
          "internalType": "bytes16",
          "name": "matchId",
          "type": "bytes16"
        }
      ],
      "name": "isExpiredOpen",
      "outputs": [
        {
          "internalType": "bool",
          "name": "",
          "type": "bool"
        }
      ],
      "stateMutability": "view",
      "type": "function"
    },
    {
      "inputs": [
        {
          "internalType": "bytes16",
          "name": "matchId",
          "type": "bytes16"
        }
      ],
      "name": "isPastResolveDeadline",
      "outputs": [
        {
          "internalType": "bool",
          "name": "",
          "type": "bool"
        }
      ],
      "stateMutability": "view",
      "type": "function"
    },
    {
      "inputs": [
        {
          "internalType": "bytes16",
          "name": "matchId",
          "type": "bytes16"
        }
      ],
      "name": "joinMatch",
      "outputs": [],
      "stateMutability": "nonpayable",
      "type": "function"
    },
    {
      "inputs": [
        {
          "internalType": "bytes16",
          "name": "",
          "type": "bytes16"
        }
      ],
      "name": "matches",
      "outputs": [
        {
          "internalType": "address",
          "name": "playerA",
          "type": "address"
        },
        {
          "internalType": "address",
          "name": "playerB",
          "type": "address"
        },
        {
          "internalType": "address",
          "name": "token",
          "type": "address"
        },
        {
          "internalType": "uint256",
          "name": "stakeAmount",
          "type": "uint256"
        },
        {
          "internalType": "enum RaiseGGEscrow.MatchStatus",
          "name": "status",
          "type": "uint8"
        },
        {
          "internalType": "uint256",
          "name": "expiresAt",
          "type": "uint256"
        },
        {
          "internalType": "uint256",
          "name": "resolveBy",
          "type": "uint256"
        }
      ],
      "stateMutability": "view",
      "type": "function"
    },
    {
      "inputs": [],
      "name": "owner",
      "outputs": [
        {
          "internalType": "address",
          "name": "",
          "type": "address"
        }
      ],
      "stateMutability": "view",
      "type": "function"
    },
    {
      "inputs": [],
      "name": "pause",
      "outputs": [],
      "stateMutability": "nonpayable",
      "type": "function"
    },
    {
      "inputs": [],
      "name": "paused",
      "outputs": [
        {
          "internalType": "bool",
          "name": "",
          "type": "bool"
        }
      ],
      "stateMutability": "view",
      "type": "function"
    },
    {
      "inputs": [],
      "name": "renounceOwnership",
      "outputs": [],
      "stateMutability": "nonpayable",
      "type": "function"
    },
    {
      "inputs": [
        {
          "internalType": "bytes16",
          "name": "matchId",
          "type": "bytes16"
        },
        {
          "internalType": "address",
          "name": "winner",
          "type": "address"
        }
      ],
      "name": "resolve",
      "outputs": [],
      "stateMutability": "nonpayable",
      "type": "function"
    },
    {
      "inputs": [
        {
          "internalType": "address",
          "name": "token",
          "type": "address"
        },
        {
          "internalType": "bool",
          "name": "allowed",
          "type": "bool"
        }
      ],
      "name": "setAllowedToken",
      "outputs": [],
      "stateMutability": "nonpayable",
      "type": "function"
    },
    {
      "inputs": [
        {
          "internalType": "address",
          "name": "_authority",
          "type": "address"
        }
      ],
      "name": "setAuthority",
      "outputs": [],
      "stateMutability": "nonpayable",
      "type": "function"
    },
    {
      "inputs": [
        {
          "internalType": "address",
          "name": "_treasury",
          "type": "address"
        }
      ],
      "name": "setTreasury",
      "outputs": [],
      "stateMutability": "nonpayable",
      "type": "function"
    },
    {
      "inputs": [
        {
          "internalType": "address",
          "name": "newOwner",
          "type": "address"
        }
      ],
      "name": "transferOwnership",
      "outputs": [],
      "stateMutability": "nonpayable",
      "type": "function"
    },
    {
      "inputs": [],
      "name": "treasury",
      "outputs": [
        {
          "internalType": "address",
          "name": "",
          "type": "address"
        }
      ],
      "stateMutability": "view",
      "type": "function"
    },
    {
      "inputs": [],
      "name": "unpause",
      "outputs": [],
      "stateMutability": "nonpayable",
      "type": "function"
    }
  ],
  "bytecode": "0x60806040523480156200001157600080fd5b50604051620015fa380380620015fa8339810160408190526200003491620001ab565b33806200005b57604051631e4fbdf760e01b81526000600482015260240160405180910390fd5b620000668162000128565b5060017f9b779b17422d0df92223018b32b4d1fa46e071723d6817e2486d003becc55f0055600180546001600160a01b038086166001600160a01b031992831617909255600280549285169290911691909117905560005b81518110156200011e57600160036000848481518110620000e357620000e3620002a5565b6020908102919091018101516001600160a01b03168252810191909152604001600020805460ff1916911515919091179055600101620000be565b50505050620002bb565b600080546001600160a01b038381166001600160a01b0319831681178455604051919092169283917f8be0079c531659141344cd1fd0a4f28419497f9722a3daafe3b4186f6b6457e09190a35050565b80516001600160a01b03811681146200019057600080fd5b919050565b634e487b7160e01b600052604160045260246000fd5b600080600060608486031215620001c157600080fd5b620001cc8462000178565b92506020620001dd81860162000178565b60408601519093506001600160401b0380821115620001fb57600080fd5b818701915087601f8301126200021057600080fd5b81518181111562000225576200022562000195565b8060051b604051601f19603f830116810181811085821117156200024d576200024d62000195565b60405291825284820192508381018501918a8311156200026c57600080fd5b938501935b828510156200029557620002858562000178565b8452938501939285019262000271565b8096505050505050509250925092565b634e487b7160e01b600052603260045260246000fd5b61132f80620002cb6000396000f3fe608060405234801561001057600080fd5b50600436106101585760003560e01c80638aaa2284116100c3578063eadec0081161007c578063eadec0081461031f578063ed26f78814610332578063f0f4426014610352578063f2fde38b14610365578063f5b488dd14610378578063ffe14b951461038b57600080fd5b80638aaa2284146102a95780638da5cb5b146102bc578063bf7e214f146102cd578063da7f82ec146102e0578063e1a45218146102f3578063e744092e146102fc57600080fd5b806361d027b31161011557806361d027b31461023f578063715018a61461026a57806379415540146102725780637991b18d1461027b5780637a9e5e4b1461028e5780638456cb59146102a157600080fd5b80630bfa24991461015d5780633f4ba83a146101d6578063492831b8146101e0578063539aa77f146101f3578063598ebc6d1461020a5780635c975abb1461022d575b600080fd5b6101ba61016b366004611081565b600460208190526000918252604090912080546001820154600283015460038401549484015460058501546006909501546001600160a01b039485169693851695949092169360ff9091169187565b6040516101cd97969594939291906110d4565b60405180910390f35b6101de610394565b005b6101de6101ee366004611081565b6103a6565b6101fc6103e881565b6040519081526020016101cd565b61021d610218366004611081565b61056d565b60405190151581526020016101cd565b600054600160a01b900460ff1661021d565b600254610252906001600160a01b031681565b6040516001600160a01b0390911681526020016101cd565b6101de6105b8565b6101fc61070881565b6101de610289366004611134565b6105ca565b6101de61029c366004611170565b610812565b6101de61083c565b6101de6102b736600461118b565b61084c565b6000546001600160a01b0316610252565b600154610252906001600160a01b031681565b61021d6102ee366004611081565b61087f565b6101fc61271081565b61021d61030a366004611170565b60036020526000908152604090205460ff1681565b6101de61032d366004611081565b6108c6565b610345610340366004611081565b610a4a565b6040516101cd91906111c7565b6101de610360366004611170565b610b34565b6101de610373366004611170565b610b5e565b6101de61038636600461122b565b610b9e565b6101fc612a3081565b61039c610d65565b6103a4610d92565b565b6103ae610de7565b6001600160801b03198116600090815260046020526040812090600482015460ff1660038111156103e1576103e161109c565b0361045d576001546001600160a01b03163314801590610405575080600501544211155b1561042357604051630822ce2160e01b815260040160405180910390fd5b60048101805460ff191660039081179091558154908201546002830154610458926001600160a01b0391821692911690610e03565b61051d565b6001600482015460ff1660038111156104785761047861109c565b03610504576001546001600160a01b031633146104a857604051631890934360e11b815260040160405180910390fd5b60048101805460ff1916600390811790915581549082015460028301546104dd926001600160a01b0391821692911690610e03565b600181015460038201546002830154610458926001600160a01b0391821692911690610e03565b604051630822ce2160e01b815260040160405180910390fd5b6040516001600160801b03198316907f994f82fec0683ef1531b1f171c6538f024324fab00f176244b783106a74db5d990600090a25061056a60016000805160206112da83398151915255565b50565b6001600160801b0319811660009081526004602052604081206001600482015460ff1660038111156105a1576105a161109c565b1480156105b15750806006015442115b9392505050565b6105c0610d65565b6103a46000610e38565b6105d2610de7565b6105da610e88565b6001600160a01b03821660009081526003602052604090205460ff166106135760405163514e24c360e11b815260040160405180910390fd5b806000036106345760405163150a67e960e01b815260040160405180910390fd5b6001600160801b031983166000908152600460205260409020546001600160a01b0316156106755760405163fc2bc70d60e01b815260040160405180910390fd5b6040518060e00160405280336001600160a01b0316815260200160006001600160a01b03168152602001836001600160a01b03168152602001828152602001600060038111156106c7576106c761109c565b81526020016106d861070842611274565b8152600060209182018190526001600160801b0319861681526004808352604091829020845181546001600160a01b03199081166001600160a01b039283161783559486015160018084018054881692841692909217909155938601516002830180549096169116179093556060840151600380850191909155608085015191840180549293909260ff19169184908111156107765761077661109c565b021790555060a0820151600582015560c0909101516006909101556107a66001600160a01b038316333084610eb3565b604080516001600160a01b03841681526020810183905233916001600160801b03198616917fe4076d14f0bd58155ff738266db3e0cefe36d90e4235289f396e6967ecc1f52f910160405180910390a361080d60016000805160206112da83398151915255565b505050565b61081a610d65565b600180546001600160a01b0319166001600160a01b0392909216919091179055565b610844610d65565b6103a4610eef565b610854610d65565b6001600160a01b03919091166000908152600360205260409020805460ff1916911515919091179055565b6001600160801b03198116600090815260046020526040812081600482015460ff1660038111156108b2576108b261109c565b1480156105b1575060050154421192915050565b6108ce610de7565b6108d6610e88565b6001600160801b03198116600090815260046020526040812090600482015460ff1660038111156109095761090961109c565b146109275760405163644322bf60e11b815260040160405180910390fd5b60018101546001600160a01b03161561095257604051621d934160e11b815260040160405180910390fd5b80546001600160a01b0316330361097c57604051631062841d60e31b815260040160405180910390fd5b80600501544211156109a1576040516307e45b9b60e01b815260040160405180910390fd5b600180820180546001600160a01b0319163317905560048201805460ff1916828002179055506109d3612a3042611274565b6006820155600381015460028201546109fb916001600160a01b039091169033903090610eb3565b60405133906001600160801b03198416907f654db798f3e709874ce0a1fca045f957545914775f9f2b3b3bd312b0e6a90fce90600090a35061056a60016000805160206112da83398151915255565b610a8a6040805160e08101825260008082526020820181905291810182905260608101829052906080820190815260200160008152602001600081525090565b6001600160801b03198216600090815260046020818152604092839020835160e08101855281546001600160a01b0390811682526001830154811693820193909352600282015490921693820193909352600380840154606083015291830154909291608084019160ff1690811115610b0557610b0561109c565b6003811115610b1657610b1661109c565b81526005820154602082015260069091015460409091015292915050565b610b3c610d65565b600280546001600160a01b0319166001600160a01b0392909216919091179055565b610b66610d65565b6001600160a01b038116610b9557604051631e4fbdf760e01b8152600060048201526024015b60405180910390fd5b61056a81610e38565b6001546001600160a01b03163314610bc957604051631890934360e11b815260040160405180910390fd5b610bd1610de7565b6001600160801b0319821660009081526004602052604090206001600482015460ff166003811115610c0557610c0561109c565b14610c235760405163a8c927ef60e01b815260040160405180910390fd5b80546001600160a01b03838116911614801590610c50575060018101546001600160a01b03838116911614155b15610c6e576040516393a5f3c760e01b815260040160405180910390fd5b600081600301546002610c81919061128d565b90506000612710610c946103e88461128d565b610c9e91906112a4565b90506000610cac82846112c6565b60048501805460ff19166002908117909155850154909150610cd8906001600160a01b03168683610e03565b6002805490850154610cf7916001600160a01b03918216911684610e03565b60408051828152602081018490526001600160a01b038716916001600160801b03198916917e3e13ed4368c0545cb7c2f09bc650c73d1183c810ef01b91d7019f2391067ee910160405180910390a350505050610d6160016000805160206112da83398151915255565b5050565b6000546001600160a01b031633146103a45760405163118cdaa760e01b8152336004820152602401610b8c565b610d9a610f32565b6000805460ff60a01b191690557f5db9ee0a495bf2e6ff9c91a7834c1ba4fdd244a5e8aa4e537bd38aeae4b073aa335b6040516001600160a01b03909116815260200160405180910390a1565b610def610f5c565b60026000805160206112da83398151915255565b610e108383836001610f8c565b61080d57604051635274afe760e01b81526001600160a01b0384166004820152602401610b8c565b600080546001600160a01b038381166001600160a01b0319831681178455604051919092169283917f8be0079c531659141344cd1fd0a4f28419497f9722a3daafe3b4186f6b6457e09190a35050565b600054600160a01b900460ff16156103a45760405163d93c066560e01b815260040160405180910390fd5b610ec1848484846001610ff2565b610ee957604051635274afe760e01b81526001600160a01b0385166004820152602401610b8c565b50505050565b610ef7610e88565b6000805460ff60a01b1916600160a01b1790557f62e78cea01bee320cd4e420270b5ea74000d11b0c9f74754ebdbfc544b05a258610dca3390565b600054600160a01b900460ff166103a457604051638dfc202b60e01b815260040160405180910390fd5b6000805160206112da833981519152546002036103a457604051633ee5aeb560e01b815260040160405180910390fd5b60405163a9059cbb60e01b60008181526001600160a01b038616600452602485905291602083604481808b5af192506001600051148316610fe6578383151615610fd9573d6000823e3d81fd5b6000873b113d1516831692505b60405250949350505050565b6040516323b872dd60e01b60008181526001600160a01b038781166004528616602452604485905291602083606481808c5af192506001600051148316611052578383151615611045573d6000823e3d81fd5b6000883b113d1516831692505b60405250600060605295945050505050565b80356001600160801b03198116811461107c57600080fd5b919050565b60006020828403121561109357600080fd5b6105b182611064565b634e487b7160e01b600052602160045260246000fd5b600481106110d057634e487b7160e01b600052602160045260246000fd5b9052565b6001600160a01b0388811682528781166020830152861660408201526060810185905260e0810161110860808301866110b2565b60a082019390935260c0015295945050505050565b80356001600160a01b038116811461107c57600080fd5b60008060006060848603121561114957600080fd5b61115284611064565b92506111606020850161111d565b9150604084013590509250925092565b60006020828403121561118257600080fd5b6105b18261111d565b6000806040838503121561119e57600080fd5b6111a78361111d565b9150602083013580151581146111bc57600080fd5b809150509250929050565b81516001600160a01b039081168252602080840151821690830152604080840151909116908201526060808301519082015260808083015160e0830191611210908401826110b2565b5060a083015160a083015260c083015160c083015292915050565b6000806040838503121561123e57600080fd5b61124783611064565b91506112556020840161111d565b90509250929050565b634e487b7160e01b600052601160045260246000fd5b808201808211156112875761128761125e565b92915050565b80820281158282048414176112875761128761125e565b6000826112c157634e487b7160e01b600052601260045260246000fd5b500490565b818103818111156112875761128761125e56fe9b779b17422d0df92223018b32b4d1fa46e071723d6817e2486d003becc55f00a2646970667358221220c615776efe09193f2c9410bd7b24380a0def8c14ff7069012aa0a01757edd11064736f6c63430008180033",
  "linkReferences": {},
  "deployedLinkReferences": {}
}